:20C00000B240805A2001D2C32200E2C22200D2D32A00E2D32A00E2D22A00F2D22A00F2D07A
:20C0200010002A00F2D020002A00F2E020002900D2E329001E43E2B220005A200D123D4096
:20C04000081A1D83FE233D410343E2B22000FD270D123D40081A1D83FE233D4103431E936D
:20C0600047241E430F433F908096042C1F533F908096FC2B0F433F908096042C1F533F9067
:20C080008096FC2BE2C22900E2D329000D123D40B3351D83FE233D41E2C32900D2D3290059
:20C0A0000D123D40B3351D83FE233D410F433F9005001634F2F0EF0029000D123D40B335CF
:20C0C0001D83FE233D41F2D0100029000D123D40B3351D83FE233D411F533F900500EA3BF8
:20C0E000F2F0EF002900F2C22900F2D020002900D2B32000A0230D123D40081A1D83FE2377
:20C100003D410343D2B32000FD270D123D40081A1D83FE233D4103431E938D230E430F434B
:20C120003F908096042C1F533F908096FC2B0F433F908096042C1F533F908096FC2BF2F0A5
:20C14000DF002900F2D0100029000D123D40B3351D83FE233D41F2F0EF002900F2D2290032
:20C160000D123D40B3351D83FE233D410F433F9005001434E2C329000D123D40B3351D839C
:20C18000FE233D41E2D329000D123D40B3351D83FE233D411F533F900500EC3BE2C3290024
:20C1A000D2C32900E2D22900463F31400004B012CCC10C43B01200C01C43B012C6C132D020
:10C1C0001000FD3F03430343FF3F03431C43304143
:02FFDE00FFFF23
:02FFE000BEC1A0
:02FFE400BEC19C
:02FFE600BEC19A
:02FFEA00BEC196
:02FFEC00BEC194
:02FFEE00BEC192
:02FFF000BEC190
:02FFF200BEC18E
:02FFF400BEC18C
:02FFF600BEC18A
:02FFF800BEC188
:02FFFA00BEC186
:02FFFC00BEC184
:02FFFE00AAC196
:00000001FF
